{
  "_format": "hh-sol-artifact-1",
  "contractName": "MockUSDT",
  "sourceName": "contracts/MockUSDT.sol",
  "abi": [
    {
      "inputs": [],
      "stateMutability": "nonpayable",
      "type": "constructor"
    },
    {
      "inputs": [
        {
          "internalType": "address",
          "name": "spender",
          "type": "address"
        },
        {
          "internalType": "uint256",
          "name": "allowance",
          "type": "uint256"
        },
        {
          "internalType": "uint256",
          "name": "needed",
          "type": "uint256"
        }
      ],
      "name": "ERC20InsufficientAllowance",
      "type": "error"
    },
    {
      "inputs": [
        {
          "internalType": "address",
          "name": "sender",
          "type": "address"
        },
        {
          "internalType": "uint256",
          "name": "balance",
          "type": "uint256"
        },
        {
          "internalType": "uint256",
          "name": "needed",
          "type": "uint256"
        }
      ],
      "name": "ERC20InsufficientBalance",
      "type": "error"
    },
    {
      "inputs": [
        {
          "internalType": "address",
          "name": "approver",
          "type": "address"
        }
      ],
      "name": "ERC20InvalidApprover",
      "type": "error"
    },
    {
      "inputs": [
        {
          "internalType": "address",
          "name": "receiver",
          "type": "address"
        }
      ],
      "name": "ERC20InvalidReceiver",
      "type": "error"
    },
    {
      "inputs": [
        {
          "internalType": "address",
          "name": "sender",
          "type": "address"
        }
      ],
      "name": "ERC20InvalidSender",
      "type": "error"
    },
    {
      "inputs": [
        {
          "internalType": "address",
          "name": "spender",
          "type": "address"
        }
      ],
      "name": "ERC20InvalidSpender",
      "type": "error"
    },
    {
      "anonymous": false,
      "inputs": [
        {
          "indexed": true,
          "internalType": "address",
          "name": "owner",
          "type": "address"
        },
        {
          "indexed": true,
          "internalType": "address",
          "name": "spender",
          "type": "address"
        },
        {
          "indexed": false,
          "internalType": "uint256",
          "name": "value",
          "type": "uint256"
        }
      ],
      "name": "Approval",
      "type": "event"
    },
    {
      "anonymous": false,
      "inputs": [
        {
          "indexed": true,
          "internalType": "address",
          "name": "from",
          "type": "address"
        },
        {
          "indexed": true,
          "internalType": "address",
          "name": "to",
          "type": "address"
        },
        {
          "indexed": false,
          "internalType": "uint256",
          "name": "value",
          "type": "uint256"
        }
      ],
      "name": "Transfer",
      "type": "event"
    },
    {
      "inputs": [
        {
          "internalType": "address",
          "name": "owner",
          "type": "address"
        },
        {
          "internalType": "address",
          "name": "spender",
          "type": "address"
        }
      ],
      "name": "allowance",
      "outputs": [
        {
          "internalType": "uint256",
          "name": "",
          "type": "uint256"
        }
      ],
      "stateMutability": "view",
      "type": "function"
    },
    {
      "inputs": [
        {
          "internalType": "address",
          "name": "spender",
          "type": "address"
        },
        {
          "internalType": "uint256",
          "name": "value",
          "type": "uint256"
        }
      ],
      "name": "approve",
      "outputs": [
        {
          "internalType": "bool",
          "name": "",
          "type": "bool"
        }
      ],
      "stateMutability": "nonpayable",
      "type": "function"
    },
    {
      "inputs": [
        {
          "internalType": "address",
          "name": "account",
          "type": "address"
        }
      ],
      "name": "balanceOf",
      "outputs": [
        {
          "internalType": "uint256",
          "name": "",
          "type": "uint256"
        }
      ],
      "stateMutability": "view",
      "type": "function"
    },
    {
      "inputs": [],
      "name": "decimals",
      "outputs": [
        {
          "internalType": "uint8",
          "name": "",
          "type": "uint8"
        }
      ],
      "stateMutability": "pure",
      "type": "function"
    },
    {
      "inputs": [],
      "name": "faucet",
      "outputs": [],
      "stateMutability": "nonpayable",
      "type": "function"
    },
    {
      "inputs": [],
      "name": "name",
      "outputs": [
        {
          "internalType": "string",
          "name": "",
          "type": "string"
        }
      ],
      "stateMutability": "view",
      "type": "function"
    },
    {
      "inputs": [],
      "name": "symbol",
      "outputs": [
        {
          "internalType": "string",
          "name": "",
          "type": "string"
        }
      ],
      "stateMutability": "view",
      "type": "function"
    },
    {
      "inputs": [],
      "name": "totalSupply",
      "outputs": [
        {
          "internalType": "uint256",
          "name": "",
          "type": "uint256"
        }
      ],
      "stateMutability": "view",
      "type": "function"
    },
    {
      "inputs": [
        {
          "internalType": "address",
          "name": "to",
          "type": "address"
        },
        {
          "internalType": "uint256",
          "name": "value",
          "type": "uint256"
        }
      ],
      "name": "transfer",
      "outputs": [
        {
          "internalType": "bool",
          "name": "",
          "type": "bool"
        }
      ],
      "stateMutability": "nonpayable",
      "type": "function"
    },
    {
      "inputs": [
        {
          "internalType": "address",
          "name": "from",
          "type": "address"
        },
        {
          "internalType": "address",
          "name": "to",
          "type": "address"
        },
        {
          "internalType": "uint256",
          "name": "value",
          "type": "uint256"
        }
      ],
      "name": "transferFrom",
      "outputs": [
        {
          "internalType": "bool",
          "name": "",
          "type": "bool"
        }
      ],
      "stateMutability": "nonpayable",
      "type": "function"
    }
  ],
  "bytecode": "0x60806040523480156200001157600080fd5b5060405180604001604052806009815260200168135bd8dac81554d11560ba1b815250604051806040016040528060048152602001631554d11560e21b8152508160039081620000629190620002ab565b506004620000718282620002ab565b5050506200008b3364e8d4a510006200009160201b60201c565b6200039f565b6001600160a01b038216620000c15760405163ec442f0560e01b8152600060048201526024015b60405180910390fd5b620000cf60008383620000d3565b5050565b6001600160a01b03831662000102578060026000828254620000f6919062000377565b90915550620001769050565b6001600160a01b03831660009081526020819052604090205481811015620001575760405163391434e360e21b81526001600160a01b03851660048201526024810182905260448101839052606401620000b8565b6001600160a01b03841660009081526020819052604090209082900390555b6001600160a01b0382166200019457600280548290039055620001b3565b6001600160a01b03821660009081526020819052604090208054820190555b816001600160a01b0316836001600160a01b03167fddf252ad1be2c89b69c2b068fc378daa952ba7f163c4a11628f55a4df523b3ef83604051620001f991815260200190565b60405180910390a3505050565b634e487b7160e01b600052604160045260246000fd5b600181811c908216806200023157607f821691505b6020821081036200025257634e487b7160e01b600052602260045260246000fd5b50919050565b601f821115620002a657600081815260208120601f850160051c81016020861015620002815750805b601f850160051c820191505b81811015620002a2578281556001016200028d565b5050505b505050565b81516001600160401b03811115620002c757620002c762000206565b620002df81620002d884546200021c565b8462000258565b602080601f831160018114620003175760008415620002fe5750858301515b600019600386901b1c1916600185901b178555620002a2565b600085815260208120601f198616915b82811015620003485788860151825594840194600190910190840162000327565b5085821015620003675787850151600019600388901b60f8161c191681555b5050505050600190811b01905550565b808201808211156200039957634e487b7160e01b600052601160045260246000fd5b92915050565b61078080620003af6000396000f3fe608060405234801561001057600080fd5b506004361061009e5760003560e01c806370a082311161006657806370a082311461011857806395d89b4114610141578063a9059cbb14610149578063dd62ed3e1461015c578063de5f72fd1461019557600080fd5b806306fdde03146100a3578063095ea7b3146100c157806318160ddd146100e457806323b872dd146100f6578063313ce56714610109575b600080fd5b6100ab61019f565b6040516100b891906105ca565b60405180910390f35b6100d46100cf366004610634565b610231565b60405190151581526020016100b8565b6002545b6040519081526020016100b8565b6100d461010436600461065e565b61024b565b604051600681526020016100b8565b6100e861012636600461069a565b6001600160a01b031660009081526020819052604090205490565b6100ab61026f565b6100d4610157366004610634565b61027e565b6100e861016a3660046106bc565b6001600160a01b03918216600090815260016020908152604080832093909416825291909152205490565b61019d61028c565b005b6060600380546101ae906106ef565b80601f01602080910402602001604051908101604052809291908181526020018280546101da906106ef565b80156102275780601f106101fc57610100808354040283529160200191610227565b820191906000526020600020905b81548152906001019060200180831161020a57829003601f168201915b5050505050905090565b60003361023f81858561029c565b60019150505b92915050565b6000336102598582856102ae565b610264858585610332565b506001949350505050565b6060600480546101ae906106ef565b60003361023f818585610332565b61029a33633b9aca00610391565b565b6102a983838360016103cb565b505050565b6001600160a01b0383811660009081526001602090815260408083209386168352929052205460001981101561032c578181101561031d57604051637dc7a0d960e11b81526001600160a01b038416600482015260248101829052604481018390526064015b60405180910390fd5b61032c848484840360006103cb565b50505050565b6001600160a01b03831661035c57604051634b637e8f60e11b815260006004820152602401610314565b6001600160a01b0382166103865760405163ec442f0560e01b815260006004820152602401610314565b6102a98383836104a0565b6001600160a01b0382166103bb5760405163ec442f0560e01b815260006004820152602401610314565b6103c7600083836104a0565b5050565b6001600160a01b0384166103f55760405163e602df0560e01b815260006004820152602401610314565b6001600160a01b03831661041f57604051634a1406b160e11b815260006004820152602401610314565b6001600160a01b038085166000908152600160209081526040808320938716835292905220829055801561032c57826001600160a01b0316846001600160a01b03167f8c5be1e5ebec7d5bd14f71427d1e84f3dd0314c0f7b2291e5b200ac8c7c3b9258460405161049291815260200190565b60405180910390a350505050565b6001600160a01b0383166104cb5780600260008282546104c09190610729565b9091555061053d9050565b6001600160a01b0383166000908152602081905260409020548181101561051e5760405163391434e360e21b81526001600160a01b03851660048201526024810182905260448101839052606401610314565b6001600160a01b03841660009081526020819052604090209082900390555b6001600160a01b03821661055957600280548290039055610578565b6001600160a01b03821660009081526020819052604090208054820190555b816001600160a01b0316836001600160a01b03167fddf252ad1be2c89b69c2b068fc378daa952ba7f163c4a11628f55a4df523b3ef836040516105bd91815260200190565b60405180910390a3505050565b600060208083528351808285015260005b818110156105f7578581018301518582016040015282016105db565b506000604082860101526040601f19601f8301168501019250505092915050565b80356001600160a01b038116811461062f57600080fd5b919050565b6000806040838503121561064757600080fd5b61065083610618565b946020939093013593505050565b60008060006060848603121561067357600080fd5b61067c84610618565b925061068a60208501610618565b9150604084013590509250925092565b6000602082840312156106ac57600080fd5b6106b582610618565b9392505050565b600080604083850312156106cf57600080fd5b6106d883610618565b91506106e660208401610618565b90509250929050565b600181811c9082168061070357607f821691505b60208210810361072357634e487b7160e01b600052602260045260246000fd5b50919050565b8082018082111561024557634e487b7160e01b600052601160045260246000fdfea264697066735822122034a60d6b81bb4a8e9b3b33c5b9b94496a99ecae2b23d6113fb3ff163f9393ef364736f6c63430008140033",
  "linkReferences": {},
  "deployedLinkReferences": {}
}