{
  "_format": "hh-sol-artifact-1",
  "contractName": "CryptoTea",
  "sourceName": "contracts/CryptoTea.sol",
  "abi": [
    {
      "inputs": [
        {
          "internalType": "address",
          "name": "_usdtToken",
          "type": "address"
        }
      ],
      "stateMutability": "nonpayable",
      "type": "constructor"
    },
    {
      "inputs": [
        {
          "internalType": "address",
          "name": "owner",
          "type": "address"
        }
      ],
      "name": "OwnableInvalidOwner",
      "type": "error"
    },
    {
      "inputs": [
        {
          "internalType": "address",
          "name": "account",
          "type": "address"
        }
      ],
      "name": "OwnableUnauthorizedAccount",
      "type": "error"
    },
    {
      "inputs": [],
      "name": "ReentrancyGuardReentrantCall",
      "type": "error"
    },
    {
      "anonymous": false,
      "inputs": [
        {
          "indexed": true,
          "internalType": "address",
          "name": "sender",
          "type": "address"
        },
        {
          "indexed": false,
          "internalType": "uint256",
          "name": "amount",
          "type": "uint256"
        },
        {
          "indexed": false,
          "internalType": "string",
          "name": "currency",
          "type": "string"
        },
        {
          "indexed": false,
          "internalType": "string",
          "name": "message",
          "type": "string"
        },
        {
          "indexed": false,
          "internalType": "uint256",
          "name": "timestamp",
          "type": "uint256"
        }
      ],
      "name": "NewTea",
      "type": "event"
    },
    {
      "anonymous": false,
      "inputs": [
        {
          "indexed": true,
          "internalType": "address",
          "name": "previousOwner",
          "type": "address"
        },
        {
          "indexed": true,
          "internalType": "address",
          "name": "newOwner",
          "type": "address"
        }
      ],
      "name": "OwnershipTransferred",
      "type": "event"
    },
    {
      "inputs": [],
      "name": "MIN_ETH_TIP",
      "outputs": [
        {
          "internalType": "uint256",
          "name": "",
          "type": "uint256"
        }
      ],
      "stateMutability": "view",
      "type": "function"
    },
    {
      "inputs": [],
      "name": "MIN_USDT_TIP",
      "outputs": [
        {
          "internalType": "uint256",
          "name": "",
          "type": "uint256"
        }
      ],
      "stateMutability": "view",
      "type": "function"
    },
    {
      "inputs": [
        {
          "internalType": "string",
          "name": "message",
          "type": "string"
        }
      ],
      "name": "buyTeaWithETH",
      "outputs": [],
      "stateMutability": "payable",
      "type": "function"
    },
    {
      "inputs": [
        {
          "internalType": "uint256",
          "name": "amount",
          "type": "uint256"
        },
        {
          "internalType": "string",
          "name": "message",
          "type": "string"
        }
      ],
      "name": "buyTeaWithUSDT",
      "outputs": [],
      "stateMutability": "nonpayable",
      "type": "function"
    },
    {
      "inputs": [],
      "name": "getAllTeas",
      "outputs": [
        {
          "components": [
            {
              "internalType": "address",
              "name": "sender",
              "type": "address"
            },
            {
              "internalType": "uint256",
              "name": "amount",
              "type": "uint256"
            },
            {
              "internalType": "string",
              "name": "currency",
              "type": "string"
            },
            {
              "internalType": "string",
              "name": "message",
              "type": "string"
            },
            {
              "internalType": "uint256",
              "name": "timestamp",
              "type": "uint256"
            }
          ],
          "internalType": "struct CryptoTea.Tea[]",
          "name": "",
          "type": "tuple[]"
        }
      ],
      "stateMutability": "view",
      "type": "function"
    },
    {
      "inputs": [],
      "name": "getContractBalance",
      "outputs": [
        {
          "internalType": "uint256",
          "name": "eth",
          "type": "uint256"
        },
        {
          "internalType": "uint256",
          "name": "usdt",
          "type": "uint256"
        }
      ],
      "stateMutability": "view",
      "type": "function"
    },
    {
      "inputs": [
        {
          "internalType": "uint256",
          "name": "limit",
          "type": "uint256"
        }
      ],
      "name": "getRecentTeas",
      "outputs": [
        {
          "components": [
            {
              "internalType": "address",
              "name": "sender",
              "type": "address"
            },
            {
              "internalType": "uint256",
              "name": "amount",
              "type": "uint256"
            },
            {
              "internalType": "string",
              "name": "currency",
              "type": "string"
            },
            {
              "internalType": "string",
              "name": "message",
              "type": "string"
            },
            {
              "internalType": "uint256",
              "name": "timestamp",
              "type": "uint256"
            }
          ],
          "internalType": "struct CryptoTea.Tea[]",
          "name": "",
          "type": "tuple[]"
        }
      ],
      "stateMutability": "view",
      "type": "function"
    },
    {
      "inputs": [],
      "name": "getTotalTeas",
      "outputs": [
        {
          "internalType": "uint256",
          "name": "",
          "type": "uint256"
        }
      ],
      "stateMutability": "view",
      "type": "function"
    },
    {
      "inputs": [],
      "name": "owner",
      "outputs": [
        {
          "internalType": "address",
          "name": "",
          "type": "address"
        }
      ],
      "stateMutability": "view",
      "type": "function"
    },
    {
      "inputs": [],
      "name": "renounceOwnership",
      "outputs": [],
      "stateMutability": "nonpayable",
      "type": "function"
    },
    {
      "inputs": [
        {
          "internalType": "uint256",
          "name": "",
          "type": "uint256"
        }
      ],
      "name": "teas",
      "outputs": [
        {
          "internalType": "address",
          "name": "sender",
          "type": "address"
        },
        {
          "internalType": "uint256",
          "name": "amount",
          "type": "uint256"
        },
        {
          "internalType": "string",
          "name": "currency",
          "type": "string"
        },
        {
          "internalType": "string",
          "name": "message",
          "type": "string"
        },
        {
          "internalType": "uint256",
          "name": "timestamp",
          "type": "uint256"
        }
      ],
      "stateMutability": "view",
      "type": "function"
    },
    {
      "inputs": [
        {
          "internalType": "address",
          "name": "",
          "type": "address"
        }
      ],
      "name": "totalTipsBySender",
      "outputs": [
        {
          "internalType": "uint256",
          "name": "",
          "type": "uint256"
        }
      ],
      "stateMutability": "view",
      "type": "function"
    },
    {
      "inputs": [
        {
          "internalType": "address",
          "name": "newOwner",
          "type": "address"
        }
      ],
      "name": "transferOwnership",
      "outputs": [],
      "stateMutability": "nonpayable",
      "type": "function"
    },
    {
      "inputs": [],
      "name": "usdtToken",
      "outputs": [
        {
          "internalType": "contract IERC20",
          "name": "",
          "type": "address"
        }
      ],
      "stateMutability": "view",
      "type": "function"
    },
    {
      "inputs": [],
      "name": "withdrawTips",
      "outputs": [],
      "stateMutability": "nonpayable",
      "type": "function"
    }
  ],
  "bytecode": "0x60a06040523480156200001157600080fd5b5060405162001a2338038062001a23833981016040819052620000349162000126565b33806200005c57604051631e4fbdf760e01b8152600060048201526024015b60405180910390fd5b6200006781620000d6565b50600180556001600160a01b038116620000c45760405162461bcd60e51b815260206004820152601460248201527f496e76616c696420555344542061646472657373000000000000000000000000604482015260640162000053565b6001600160a01b031660805262000158565b600080546001600160a01b038381166001600160a01b0319831681178455604051919092169283917f8be0079c531659141344cd1fd0a4f28419497f9722a3daafe3b4186f6b6457e09190a35050565b6000602082840312156200013957600080fd5b81516001600160a01b03811681146200015157600080fd5b9392505050565b60805161188c620001976000396000818161026c015281816104d0015281816105f50152818161099b01528181610b000152610bdf015261188c6000f3fe6080604052600436106100e85760003560e01c8063715018a61161008a578063a98ad46c11610059578063a98ad46c1461025a578063bd065a4c1461028e578063ead6c0cf146102bf578063f2fde38b146102d957600080fd5b8063715018a6146101d35780637b979e29146101e857806384d07c88146102155780638da5cb5b1461022857600080fd5b80633dd1f7c1116100c65780633dd1f7c1146101545780634c487726146101695780636f9fb98a1461018957806370fadcd8146101b357600080fd5b80630b3ef055146100ed578063219c6e82146101185780633aaa74b21461013d575b600080fd5b3480156100f957600080fd5b506101026102f9565b60405161010f919061138b565b60405180910390f35b34801561012457600080fd5b5061012f620186a081565b60405190815260200161010f565b34801561014957600080fd5b506101526104a6565b005b34801561016057600080fd5b5060025461012f565b34801561017557600080fd5b5061010261018436600461143d565b6106fa565b34801561019557600080fd5b5061019e610981565b6040805192835260208301919091520161010f565b3480156101bf57600080fd5b506101526101ce36600461149f565b610a14565b3480156101df57600080fd5b50610152610e51565b3480156101f457600080fd5b5061012f6102033660046114eb565b60036020526000908152604090205481565b61015261022336600461151b565b610e63565b34801561023457600080fd5b506000546001600160a01b03165b6040516001600160a01b03909116815260200161010f565b34801561026657600080fd5b506102427f000000000000000000000000000000000000000000000000000000000000000081565b34801561029a57600080fd5b506102ae6102a936600461143d565b611103565b60405161010f95949392919061155d565b3480156102cb57600080fd5b5061012f655af3107a400081565b3480156102e557600080fd5b506101526102f43660046114eb565b611260565b60606002805480602002602001604051908101604052809291908181526020016000905b8282101561049d5760008481526020908190206040805160a0810182526005860290920180546001600160a01b0316835260018101549383019390935260028301805492939291840191610370906115a9565b80601f016020809104026020016040519081016040528092919081815260200182805461039c906115a9565b80156103e95780601f106103be576101008083540402835291602001916103e9565b820191906000526020600020905b8154815290600101906020018083116103cc57829003601f168201915b50505050508152602001600382018054610402906115a9565b80601f016020809104026020016040519081016040528092919081815260200182805461042e906115a9565b801561047b5780601f106104505761010080835404028352916020019161047b565b820191906000526020600020905b81548152906001019060200180831161045e57829003601f168201915b505050505081526020016004820154815250508152602001906001019061031d565b50505050905090565b6104ae61129e565b6104b66112cb565b6040516370a0823160e01b815230600482015247906000907f00000000000000000000000000000000000000000000000000000000000000006001600160a01b0316906370a0823190602401602060405180830381865afa15801561051f573d6000803e3d6000fd5b505050506040513d601f19601f8201168201806040525081019061054391906115e3565b905081156105eb57600080546040516001600160a01b039091169084908381818185875af1925050503d8060008114610598576040519150601f19603f3d011682016040523d82523d6000602084013e61059d565b606091505b50509050806105e95760405162461bcd60e51b8152602060048201526013602482015272115512081d1c985b9cd9995c8819985a5b1959606a1b60448201526064015b60405180910390fd5b505b80156106ed5760007f00000000000000000000000000000000000000000000000000000000000000006001600160a01b031663a9059cbb6106346000546001600160a01b031690565b6040516001600160e01b031960e084901b1681526001600160a01b039091166004820152602481018590526044016020604051808303816000875af1158015610681573d6000803e3d6000fd5b505050506040513d601f19601f820116820180604052508101906106a591906115fc565b9050806106eb5760405162461bcd60e51b81526020600482015260146024820152731554d115081d1c985b9cd9995c8819985a5b195960621b60448201526064016105e0565b505b50506106f860018055565b565b6002546060908083111561070c578092505b60008367ffffffffffffffff8111156107275761072761161e565b60405190808252806020026020018201604052801561079357816020015b6107806040518060a0016040528060006001600160a01b03168152602001600081526020016060815260200160608152602001600081525090565b8152602001906001900390816107455790505b50905060005b84811015610979576002816107af60018661164a565b6107b9919061164a565b815481106107c9576107c9611663565b90600052602060002090600502016040518060a00160405290816000820160009054906101000a90046001600160a01b03166001600160a01b03166001600160a01b031681526020016001820154815260200160028201805461082b906115a9565b80601f0160208091040260200160405190810160405280929190818152602001828054610857906115a9565b80156108a45780601f10610879576101008083540402835291602001916108a4565b820191906000526020600020905b81548152906001019060200180831161088757829003601f168201915b505050505081526020016003820180546108bd906115a9565b80601f01602080910402602001604051908101604052809291908181526020018280546108e9906115a9565b80156109365780601f1061090b57610100808354040283529160200191610936565b820191906000526020600020905b81548152906001019060200180831161091957829003601f168201915b5050505050815260200160048201548152505082828151811061095b5761095b611663565b6020026020010181905250808061097190611679565b915050610799565b509392505050565b6040516370a0823160e01b815230600482015247906000907f00000000000000000000000000000000000000000000000000000000000000006001600160a01b0316906370a0823190602401602060405180830381865afa1580156109ea573d6000803e3d6000fd5b505050506040513d601f19601f82011682018060405250810190610a0e91906115e3565b90509091565b610a1c6112cb565b620186a0831015610a625760405162461bcd60e51b815260206004820152601060248201526f135a5b9a5b5d5b480c0b8c481554d11560821b60448201526064016105e0565b80610a9f5760405162461bcd60e51b815260206004820152600d60248201526c456d707479206d65737361676560981b60448201526064016105e0565b60c8811115610ae35760405162461bcd60e51b815260206004820152601060248201526f4d65737361676520746f6f206c6f6e6760801b60448201526064016105e0565b604051636eb1769f60e11b815233600482015230602482015283907f00000000000000000000000000000000000000000000000000000000000000006001600160a01b03169063dd62ed3e90604401602060405180830381865afa158015610b4f573d6000803e3d6000fd5b505050506040513d601f19601f82011682018060405250810190610b7391906115e3565b1015610bba5760405162461bcd60e51b8152602060048201526016602482015275496e73756666696369656e7420616c6c6f77616e636560501b60448201526064016105e0565b6040516323b872dd60e01b8152336004820152306024820152604481018490526000907f00000000000000000000000000000000000000000000000000000000000000006001600160a01b0316906323b872dd906064016020604051808303816000875af1158015610c30573d6000803e3d6000fd5b505050506040513d601f19601f82011682018060405250810190610c5491906115fc565b905080610c955760405162461bcd60e51b815260206004820152600f60248201526e151c985b9cd9995c8819985a5b1959608a1b60448201526064016105e0565b6040805160a08101825233815260208082018790528251808401845260048152631554d11560e21b81830152828401528251601f86018290048202810182019093528483526000926060830191879087908190840183828082843760009201829052509385525050426020938401525060028054600181018255915282517f405787fa12a823e0f2b7631cc41b3ba8828b3321ca811111fa75cd3aa3bb5ace600590920291820180546001600160a01b0319166001600160a01b03909216919091178155918301517f405787fa12a823e0f2b7631cc41b3ba8828b3321ca811111fa75cd3aa3bb5acf820155604083015192935083927f405787fa12a823e0f2b7631cc41b3ba8828b3321ca811111fa75cd3aa3bb5ad090910190610dba90826116e0565b5060608201516003820190610dcf90826116e0565b50608091909101516004909101553360009081526003602052604081208054879290610dfc9084906117a0565b909155505060405133907f60f88a881035af04069274e658997ded7bf5b05f7ffc265a84d14b1d9d09dce690610e399088908890889042906117dc565b60405180910390a25050610e4c60018055565b505050565b610e5961129e565b6106f860006112f5565b610e6b6112cb565b655af3107a4000341015610eb65760405162461bcd60e51b815260206004820152601260248201527109ad2dcd2daeada40605c60606062408aa8960731b60448201526064016105e0565b80610ef35760405162461bcd60e51b815260206004820152600d60248201526c456d707479206d65737361676560981b60448201526064016105e0565b60c8811115610f375760405162461bcd60e51b815260206004820152601060248201526f4d65737361676520746f6f206c6f6e6760801b60448201526064016105e0565b60006040518060a00160405280336001600160a01b031681526020013481526020016040518060400160405280600381526020016208aa8960eb1b815250815260200184848080601f01602080910402602001604051908101604052809392919081815260200183838082843760009201829052509385525050426020938401525060028054600181018255915282517f405787fa12a823e0f2b7631cc41b3ba8828b3321ca811111fa75cd3aa3bb5ace600590920291820180546001600160a01b0319166001600160a01b03909216919091178155918301517f405787fa12a823e0f2b7631cc41b3ba8828b3321ca811111fa75cd3aa3bb5acf820155604083015192935083927f405787fa12a823e0f2b7631cc41b3ba8828b3321ca811111fa75cd3aa3bb5ad09091019061106e90826116e0565b506060820151600382019061108390826116e0565b506080919091015160049091015533600090815260036020526040812080543492906110b09084906117a0565b909155505060405133907f60f88a881035af04069274e658997ded7bf5b05f7ffc265a84d14b1d9d09dce6906110ed903490879087904290611822565b60405180910390a2506110ff60018055565b5050565b6002818154811061111357600080fd5b60009182526020909120600590910201805460018201546002830180546001600160a01b039093169450909291611149906115a9565b80601f0160208091040260200160405190810160405280929190818152602001828054611175906115a9565b80156111c25780601f10611197576101008083540402835291602001916111c2565b820191906000526020600020905b8154815290600101906020018083116111a557829003601f168201915b5050505050908060030180546111d7906115a9565b80601f0160208091040260200160405190810160405280929190818152602001828054611203906115a9565b80156112505780601f1061122557610100808354040283529160200191611250565b820191906000526020600020905b81548152906001019060200180831161123357829003601f168201915b5050505050908060040154905085565b61126861129e565b6001600160a01b03811661129257604051631e4fbdf760e01b8152600060048201526024016105e0565b61129b816112f5565b50565b6000546001600160a01b031633146106f85760405163118cdaa760e01b81523360048201526024016105e0565b6002600154036112ee57604051633ee5aeb560e01b815260040160405180910390fd5b6002600155565b600080546001600160a01b038381166001600160a01b0319831681178455604051919092169283917f8be0079c531659141344cd1fd0a4f28419497f9722a3daafe3b4186f6b6457e09190a35050565b6000815180845260005b8181101561136b5760208185018101518683018201520161134f565b506000602082860101526020601f19601f83011685010191505092915050565b60006020808301818452808551808352604092508286019150828160051b87010184880160005b8381101561142f57888303603f19018552815180516001600160a01b0316845287810151888501528681015160a0888601819052906113f382870182611345565b9150506060808301518683038288015261140d8382611345565b60809485015197909401969096525050948701949250908601906001016113b2565b509098975050505050505050565b60006020828403121561144f57600080fd5b5035919050565b60008083601f84011261146857600080fd5b50813567ffffffffffffffff81111561148057600080fd5b60208301915083602082850101111561149857600080fd5b9250929050565b6000806000604084860312156114b457600080fd5b83359250602084013567ffffffffffffffff8111156114d257600080fd5b6114de86828701611456565b9497909650939450505050565b6000602082840312156114fd57600080fd5b81356001600160a01b038116811461151457600080fd5b9392505050565b6000806020838503121561152e57600080fd5b823567ffffffffffffffff81111561154557600080fd5b61155185828601611456565b90969095509350505050565b60018060a01b038616815284602082015260a06040820152600061158460a0830186611345565b82810360608401526115968186611345565b9150508260808301529695505050505050565b600181811c908216806115bd57607f821691505b6020821081036115dd57634e487b7160e01b600052602260045260246000fd5b50919050565b6000602082840312156115f557600080fd5b5051919050565b60006020828403121561160e57600080fd5b8151801515811461151457600080fd5b634e487b7160e01b600052604160045260246000fd5b634e487b7160e01b600052601160045260246000fd5b8181038181111561165d5761165d611634565b92915050565b634e487b7160e01b600052603260045260246000fd5b60006001820161168b5761168b611634565b5060010190565b601f821115610e4c57600081815260208120601f850160051c810160208610156116b95750805b601f850160051c820191505b818110156116d8578281556001016116c5565b505050505050565b815167ffffffffffffffff8111156116fa576116fa61161e565b61170e8161170884546115a9565b84611692565b602080601f831160018114611743576000841561172b5750858301515b600019600386901b1c1916600185901b1785556116d8565b600085815260208120601f198616915b8281101561177257888601518255948401946001909101908401611753565b50858210156117905787850151600019600388901b60f8161c191681555b5050505050600190811b01905550565b8082018082111561165d5761165d611634565b81835281816020850137506000828201602090810191909152601f909101601f19169091010190565b8481526080602082015260046080820152631554d11560e21b60a082015260c06040820152600061181160c0830185876117b3565b905082606083015295945050505050565b84815260806020820152600360808201526208aa8960eb1b60a082015260c06040820152600061181160c0830185876117b356fea2646970667358221220b5aceb3223fb7da74db90939aca6344d3a54e0d7eca678765b65eba62b3ccbfd64736f6c63430008140033",
  "linkReferences": {},
  "deployedLinkReferences": {}
}